:020000040000FA
:1000000060020020FD02000005030000070300005D
:10001000090300000B0300000D03000000000000B6
:100020000000000000000000000000000F030000BE
:10003000110300000000000013030000150300007E
:1000400017030000190300001B0300001D0300003C
:100050001F0300002103000023030000250300000C
:1000600027030000290300002B0300002D030000DC
:100070002F030000310300003303000035030000AC
:1000800037030000390300003B0300003D0300007C
:100090003F0300004103000043030000450300004C
:1000A00047030000490300004B0300004D0300001C
:1000B0004F030000510300005303000055030000EC
:1000C00057030000590300005B0300005D030000BC
:1000D0005F0300006103000063030000650300008C
:1000E0006703000069030000000000006B030000CC
:1000F0006D0300006F030000710300007303000034
:100100007503000077030000790300007B03000003
:1001100000000000000000007D0300007F030000DD
:1001200081030000830300008503000087030000B3
:10013000890300008B0300008D0300008F03000083
:1001400000000000000000000000000000000000AF
:100150009103000093030000950300009703000043
:10016000000000000000000000000000000000008F
:10017000000000000000000000000000000000007F
:10018000000000000000000000000000000000006F
:10019000000000000000000000000000000000005F
:1001A000000000000000000000000000000000004F
:1001B000990300009B0300009D0300009F030000C3
:1001C000A1030000A3030000A5030000A703000093
:1001D000A9030000AB030000AD030000AF03000063
:1001E000B1030000B3030000B503000000000000ED
:1001F00000000000B7030000B9030000BB030000CB
:10020000BD030000BF03000000000000000000006C
:10021000C1030000C3030000C5030000C7030000C2
:10022000C9030000CB030000CD030000CF03000092
:10023000D1030000D3030000D5030000D703000062
:10024000D9030000DB030000DD030000DF03000032
:10025000E1030000E3030000E5030000E703000002
:10026000E9030000EB030000ED03000000F002F8DA
:1002700000F032F80AA090E8000C82448344AAF10E
:100280000107DA4501D100F027F8AFF2090EBAE80C
:100290000F0013F0010F18BFFB1A43F001031847BA
:1002A0003004000040040000002300240025002644
:1002B000103A28BF78C1FBD8520728BF30C148BFC9
:1002C0000B6070471FB500F0F5F90FBC00F014F893
:1002D0000FB41FBD10B510BD00F09DF81146FFF71B
:1002E000F1FF00F0DFF900F0BBF803B4FFF7F2FF15
:1002F00003BC00F0C3F8000000F0D7B83F488047C7
:100300003F480047FEE7FEE7FEE7FEE7FEE7FEE7C1
:10031000FEE7FEE7FEE7FEE7FEE7FEE7FEE7FEE7B5
:10032000FEE7FEE7FEE7FEE7FEE7FEE7FEE7FEE7A5
:10033000FEE7FEE7FEE7FEE7FEE7FEE7FEE7FEE795
:10034000FEE7FEE7FEE7FEE7FEE7FEE7FEE7FEE785
:10035000FEE7FEE7FEE7FEE7FEE7FEE7FEE7FEE775
:10036000FEE7FEE7FEE7FEE7FEE7FEE7FEE7FEE765
:10037000FEE7FEE7FEE7FEE7FEE7FEE7FEE7FEE755
:10038000FEE7FEE7FEE7FEE7FEE7FEE7FEE7FEE745
:10039000FEE7FEE7FEE7FEE7FEE7FEE7FEE7FEE735
:1003A000FEE7FEE7FEE7FEE7FEE7FEE7FEE7FEE725
:1003B000FEE7FEE7FEE7FEE7FEE7FEE7FEE7FEE715
:1003C000FEE7FEE7FEE7FEE7FEE7FEE7FEE7FEE705
:1003D000FEE7FEE7FEE7FEE7FEE7FEE7FEE7FEE7F5
:1003E000FEE7FEE7FEE7FEE7FEE7FEE7FEE70000CA
:1003F00004480549034A054B704700009106000078
:100400006D020000600000206002002060000020FB
:10041000704770477047754600F02CF8AE460500EF
:100420006946534620F00700854618B020B5FFF70F
:10043000DFFFBDE820404FF000064FF000074FF00F
:1004400000084FF0000BAC46ACE8C009ACE8C009AE
:10045000ACE8C009ACE8C00921F007018D4670473F
:1004600010B50446AFF300802046BDE81040FFF70A
:100470003CBF0000004870470000002001491820E0
:10048000ABBEFEE7260002000246C91C21F00301B4
:10049000D2E900031B1A8B4201D2002070470144AD
:1004A000C91D21F00701116070472DE9F34F83B09A
:1004B00000274FF48074BA4603A821468DF80070D7
:1004C000FFF7E2FF5FEA000801D100F083F8214660
:1004D000404600F070F8060009D04FF0010B454689
:1004E000C14616F8014B8FB15C2C16D01CE008F108
:1004F00008004146C8F800000020C8F80400D8F8F9
:1005000000402070012005B0BDE8F08F222C01D002
:10051000272C0FD12746BA462CE03078222807D066
:100520005C2805D0272803D0BC4203D1002721E056
:10053000761C04464CB12FB9202C06D0A4F109003A
:10054000042802D905F8014BCBE74D4502D1BAF199
:10055000000F0FD052464946002005F8010B6846AF
:10056000AFF300809DF8000070B14D464FF0000AD7
:100570000BF1010B002CB4D14FEA8B0103A8FFF75C
:1005800083FF040002D004E0A946EFE7002000F05A
:1005900021F800204246C4F8008005E012F8011B53
:1005A00011B9401C44F82020AA42F7D3002144F896
:1005B00020102146A7E71CB50446CDE90001694695
:1005C0001520ABBE08B100201CBD20461CBD7047E5
:1005D0007047704710B500F009F8BDE81040AFF360
:1005E0000080002801D0FFF749BF704710B50128EF
:1005F00005D0002103A000F021F8012010BD09A1C1
:10060000F8E7000053494752544D454D3A204F7585
:1006100074206F662068656170206D656D6F7279FA
:10062000000000003A2048656170206D656D6F72B2
:100630007920636F727275707465640070B50546D9
:100640000C460A2000E06D1C00F011F835B1287846
:100650000028F8D102E0641C00F009F814B12078F9
:100660000028F8D1BDE870400A20AFF3008008B53B
:1006700069468DF800000320ABBE08BD4EF60C5055
:10068000CEF200000021CFF6052101607047000086
:100690004EF68850CEF20000016841F4700101600E
:1006A0007047000080B582B000200190FFF7E6FFA0
:1006B000FFE7FEE7F1EE100A4FF6FF71C0F2C0311E
:1006C00020EA010040F04070E1EE100A704700009F
:1006D000E00600000000002060020000A802000008
:040000050000026D88
:00000001FF
